{
  "_format": "hh-sol-artifact-1",
  "contractName": "MyToken",
  "sourceName": "contracts/core/MyToken.sol",
  "abi": [
    {
      "inputs": [
        {
          "internalType": "string",
          "name": "name_",
          "type": "string"
        },
        {
          "internalType": "string",
          "name": "symbol_",
          "type": "string"
        }
      ],
      "stateMutability": "nonpayable",
      "type": "constructor"
    },
    {
      "inputs": [
        {
          "internalType": "uint256",
          "name": "increasedSupply",
          "type": "uint256"
        },
        {
          "internalType": "uint256",
          "name": "cap",
          "type": "uint256"
        }
      ],
      "name": "ERC20ExceededCap",
      "type": "error"
    },
    {
      "inputs": [
        {
          "internalType": "address",
          "name": "spender",
          "type": "address"
        },
        {
          "internalType": "uint256",
          "name": "allowance",
          "type": "uint256"
        },
        {
          "internalType": "uint256",
          "name": "needed",
          "type": "uint256"
        }
      ],
      "name": "ERC20InsufficientAllowance",
      "type": "error"
    },
    {
      "inputs": [
        {
          "internalType": "address",
          "name": "sender",
          "type": "address"
        },
        {
          "internalType": "uint256",
          "name": "balance",
          "type": "uint256"
        },
        {
          "internalType": "uint256",
          "name": "needed",
          "type": "uint256"
        }
      ],
      "name": "ERC20InsufficientBalance",
      "type": "error"
    },
    {
      "inputs": [
        {
          "internalType": "address",
          "name": "approver",
          "type": "address"
        }
      ],
      "name": "ERC20InvalidApprover",
      "type": "error"
    },
    {
      "inputs": [
        {
          "internalType": "uint256",
          "name": "cap",
          "type": "uint256"
        }
      ],
      "name": "ERC20InvalidCap",
      "type": "error"
    },
    {
      "inputs": [
        {
          "internalType": "address",
          "name": "receiver",
          "type": "address"
        }
      ],
      "name": "ERC20InvalidReceiver",
      "type": "error"
    },
    {
      "inputs": [
        {
          "internalType": "address",
          "name": "sender",
          "type": "address"
        }
      ],
      "name": "ERC20InvalidSender",
      "type": "error"
    },
    {
      "inputs": [
        {
          "internalType": "address",
          "name": "spender",
          "type": "address"
        }
      ],
      "name": "ERC20InvalidSpender",
      "type": "error"
    },
    {
      "inputs": [
        {
          "internalType": "address",
          "name": "owner",
          "type": "address"
        }
      ],
      "name": "OwnableInvalidOwner",
      "type": "error"
    },
    {
      "inputs": [
        {
          "internalType": "address",
          "name": "account",
          "type": "address"
        }
      ],
      "name": "OwnableUnauthorizedAccount",
      "type": "error"
    },
    {
      "anonymous": false,
      "inputs": [
        {
          "indexed": true,
          "internalType": "address",
          "name": "owner",
          "type": "address"
        },
        {
          "indexed": true,
          "internalType": "address",
          "name": "spender",
          "type": "address"
        },
        {
          "indexed": false,
          "internalType": "uint256",
          "name": "value",
          "type": "uint256"
        }
      ],
      "name": "Approval",
      "type": "event"
    },
    {
      "anonymous": false,
      "inputs": [
        {
          "indexed": true,
          "internalType": "address",
          "name": "previousOwner",
          "type": "address"
        },
        {
          "indexed": true,
          "internalType": "address",
          "name": "newOwner",
          "type": "address"
        }
      ],
      "name": "OwnershipTransferred",
      "type": "event"
    },
    {
      "anonymous": false,
      "inputs": [
        {
          "indexed": true,
          "internalType": "address",
          "name": "from",
          "type": "address"
        },
        {
          "indexed": true,
          "internalType": "address",
          "name": "to",
          "type": "address"
        },
        {
          "indexed": false,
          "internalType": "uint256",
          "name": "value",
          "type": "uint256"
        }
      ],
      "name": "Transfer",
      "type": "event"
    },
    {
      "inputs": [
        {
          "internalType": "address",
          "name": "owner",
          "type": "address"
        },
        {
          "internalType": "address",
          "name": "spender",
          "type": "address"
        }
      ],
      "name": "allowance",
      "outputs": [
        {
          "internalType": "uint256",
          "name": "",
          "type": "uint256"
        }
      ],
      "stateMutability": "view",
      "type": "function"
    },
    {
      "inputs": [
        {
          "internalType": "address",
          "name": "spender",
          "type": "address"
        },
        {
          "internalType": "uint256",
          "name": "value",
          "type": "uint256"
        }
      ],
      "name": "approve",
      "outputs": [
        {
          "internalType": "bool",
          "name": "",
          "type": "bool"
        }
      ],
      "stateMutability": "nonpayable",
      "type": "function"
    },
    {
      "inputs": [
        {
          "internalType": "address",
          "name": "account",
          "type": "address"
        }
      ],
      "name": "balanceOf",
      "outputs": [
        {
          "internalType": "uint256",
          "name": "",
          "type": "uint256"
        }
      ],
      "stateMutability": "view",
      "type": "function"
    },
    {
      "inputs": [
        {
          "internalType": "uint256",
          "name": "amount",
          "type": "uint256"
        }
      ],
      "name": "burn",
      "outputs": [],
      "stateMutability": "nonpayable",
      "type": "function"
    },
    {
      "inputs": [
        {
          "internalType": "address",
          "name": "account",
          "type": "address"
        },
        {
          "internalType": "uint256",
          "name": "amount",
          "type": "uint256"
        }
      ],
      "name": "burnFrom",
      "outputs": [],
      "stateMutability": "nonpayable",
      "type": "function"
    },
    {
      "inputs": [],
      "name": "cap",
      "outputs": [
        {
          "internalType": "uint256",
          "name": "",
          "type": "uint256"
        }
      ],
      "stateMutability": "view",
      "type": "function"
    },
    {
      "inputs": [],
      "name": "decimals",
      "outputs": [
        {
          "internalType": "uint8",
          "name": "",
          "type": "uint8"
        }
      ],
      "stateMutability": "view",
      "type": "function"
    },
    {
      "inputs": [
        {
          "internalType": "address",
          "name": "to",
          "type": "address"
        },
        {
          "internalType": "uint256",
          "name": "amount",
          "type": "uint256"
        }
      ],
      "name": "mint",
      "outputs": [],
      "stateMutability": "nonpayable",
      "type": "function"
    },
    {
      "inputs": [],
      "name": "name",
      "outputs": [
        {
          "internalType": "string",
          "name": "",
          "type": "string"
        }
      ],
      "stateMutability": "view",
      "type": "function"
    },
    {
      "inputs": [],
      "name": "owner",
      "outputs": [
        {
          "internalType": "address",
          "name": "",
          "type": "address"
        }
      ],
      "stateMutability": "view",
      "type": "function"
    },
    {
      "inputs": [],
      "name": "renounceOwnership",
      "outputs": [],
      "stateMutability": "nonpayable",
      "type": "function"
    },
    {
      "inputs": [],
      "name": "symbol",
      "outputs": [
        {
          "internalType": "string",
          "name": "",
          "type": "string"
        }
      ],
      "stateMutability": "view",
      "type": "function"
    },
    {
      "inputs": [],
      "name": "totalSupply",
      "outputs": [
        {
          "internalType": "uint256",
          "name": "",
          "type": "uint256"
        }
      ],
      "stateMutability": "view",
      "type": "function"
    },
    {
      "inputs": [
        {
          "internalType": "address",
          "name": "to",
          "type": "address"
        },
        {
          "internalType": "uint256",
          "name": "value",
          "type": "uint256"
        }
      ],
      "name": "transfer",
      "outputs": [
        {
          "internalType": "bool",
          "name": "",
          "type": "bool"
        }
      ],
      "stateMutability": "nonpayable",
      "type": "function"
    },
    {
      "inputs": [
        {
          "internalType": "address",
          "name": "from",
          "type": "address"
        },
        {
          "internalType": "address",
          "name": "to",
          "type": "address"
        },
        {
          "internalType": "uint256",
          "name": "value",
          "type": "uint256"
        }
      ],
      "name": "transferFrom",
      "outputs": [
        {
          "internalType": "bool",
          "name": "",
          "type": "bool"
        }
      ],
      "stateMutability": "nonpayable",
      "type": "function"
    },
    {
      "inputs": [
        {
          "internalType": "address",
          "name": "newOwner",
          "type": "address"
        }
      ],
      "name": "transferOwnership",
      "outputs": [],
      "stateMutability": "nonpayable",
      "type": "function"
    }
  ],
  "bytecode": "0x60a06040523480156200001157600080fd5b5060405162001ea538038062001ea58339818101604052810190620000379190620003e9565b620000476200017f60201b60201c565b620000576200018760201b60201c565b600a62000065919062000608565b633b9aca0062000076919062000659565b83838160039081620000899190620008e5565b5080600490816200009b9190620008e5565b50505060008103620000e75760006040517f392e1e27000000000000000000000000000000000000000000000000000000008152600401620000de919062000a0f565b60405180910390fd5b806080818152505050600073ffffffffffffffffffffffffffffffffffffffff168173ffffffffffffffffffffffffffffffffffffffff1603620001655760006040517f1e4fbdf70000000000000000000000000000000000000000000000000000000081526004016200015c919062000a71565b60405180910390fd5b62000176816200019060201b60201c565b50505062000a8e565b600033905090565b60006012905090565b6000600560009054906101000a900473ffffffffffffffffffffffffffffffffffffffff16905081600560006101000a81548173ffffffffffffffffffffffffffffffffffffffff021916908373ffffffffffffffffffffffffffffffffffffffff1602179055508173ffffffffffffffffffffffffffffffffffffffff168173ffffffffffffffffffffffffffffffffffffffff167f8be0079c531659141344cd1fd0a4f28419497f9722a3daafe3b4186f6b6457e060405160405180910390a35050565b6000604051905090565b600080fd5b600080fd5b600080fd5b600080fd5b6000601f19601f8301169050919050565b7f4e487b7100000000000000000000000000000000000000000000000000000000600052604160045260246000fd5b620002bf8262000274565b810181811067ffffffffffffffff82111715620002e157620002e062000285565b5b80604052505050565b6000620002f662000256565b9050620003048282620002b4565b919050565b600067ffffffffffffffff82111562000327576200032662000285565b5b620003328262000274565b9050602081019050919050565b60005b838110156200035f57808201518184015260208101905062000342565b60008484015250505050565b6000620003826200037c8462000309565b620002ea565b905082815260208101848484011115620003a157620003a06200026f565b5b620003ae8482856200033f565b509392505050565b600082601f830112620003ce57620003cd6200026a565b5b8151620003e08482602086016200036b565b91505092915050565b6000806040838503121562000403576200040262000260565b5b600083015167ffffffffffffffff81111562000424576200042362000265565b5b6200043285828601620003b6565b925050602083015167ffffffffffffffff81111562000456576200045562000265565b5b6200046485828601620003b6565b9150509250929050565b7f4e487b7100000000000000000000000000000000000000000000000000000000600052601160045260246000fd5b60008160011c9050919050565b6000808291508390505b6001851115620004fc57808604811115620004d457620004d36200046e565b5b6001851615620004e45780820291505b8081029050620004f4856200049d565b9450620004b4565b94509492505050565b600082620005175760019050620005ea565b81620005275760009050620005ea565b81600181146200054057600281146200054b5762000581565b6001915050620005ea565b60ff84111562000560576200055f6200046e565b5b8360020a9150848211156200057a57620005796200046e565b5b50620005ea565b5060208310610133831016604e8410600b8410161715620005bb5782820a905083811115620005b557620005b46200046e565b5b620005ea565b620005ca8484846001620004aa565b92509050818404811115620005e457620005e36200046e565b5b81810290505b9392505050565b6000819050919050565b600060ff82169050919050565b60006200061582620005f1565b91506200062283620005fb565b9250620006517fffffffffffffffffffffffffffffffffffffffffffffffffffffffffffffffff848462000505565b905092915050565b60006200066682620005f1565b91506200067383620005f1565b92508282026200068381620005f1565b915082820484148315176200069d576200069c6200046e565b5b5092915050565b600081519050919050565b7f4e487b7100000000000000000000000000000000000000000000000000000000600052602260045260246000fd5b60006002820490506001821680620006f757607f821691505b6020821081036200070d576200070c620006af565b5b50919050565b60008190508160005260206000209050919050565b60006020601f8301049050919050565b600082821b905092915050565b600060088302620007777fffffffffffffffffffffffffffffffffffffffffffffffffffffffffffffffff8262000738565b62000783868362000738565b95508019841693508086168417925050509392505050565b6000819050919050565b6000620007c6620007c0620007ba84620005f1565b6200079b565b620005f1565b9050919050565b6000819050919050565b620007e283620007a5565b620007fa620007f182620007cd565b84845462000745565b825550505050565b600090565b6200081162000802565b6200081e818484620007d7565b505050565b5b8181101562000846576200083a60008262000807565b60018101905062000824565b5050565b601f82111562000895576200085f8162000713565b6200086a8462000728565b810160208510156200087a578190505b62000892620008898562000728565b83018262000823565b50505b505050565b600082821c905092915050565b6000620008ba600019846008026200089a565b1980831691505092915050565b6000620008d58383620008a7565b9150826002028217905092915050565b620008f082620006a4565b67ffffffffffffffff8111156200090c576200090b62000285565b5b620009188254620006de565b620009258282856200084a565b600060209050601f8311600181146200095d576000841562000948578287015190505b620009548582620008c7565b865550620009c4565b601f1984166200096d8662000713565b60005b82811015620009975784890151825560018201915060208501945060208101905062000970565b86831015620009b75784890151620009b3601f891682620008a7565b8355505b6001600288020188555050505b505050505050565b6000819050919050565b6000620009f7620009f1620009eb84620009cc565b6200079b565b620005f1565b9050919050565b62000a0981620009d6565b82525050565b600060208201905062000a266000830184620009fe565b92915050565b600073ffffffffffffffffffffffffffffffffffffffff82169050919050565b600062000a598262000a2c565b9050919050565b62000a6b8162000a4c565b82525050565b600060208201905062000a88600083018462000a60565b92915050565b6080516113fb62000aaa600039600061041e01526113fb6000f3fe608060405234801561001057600080fd5b50600436106101005760003560e01c806370a082311161009757806395d89b411161006657806395d89b4114610289578063a9059cbb146102a7578063dd62ed3e146102d7578063f2fde38b1461030757610100565b806370a0823114610215578063715018a61461024557806379cc67901461024f5780638da5cb5b1461026b57610100565b8063313ce567116100d3578063313ce567146101a1578063355274ea146101bf57806340c10f19146101dd57806342966c68146101f957610100565b806306fdde0314610105578063095ea7b31461012357806318160ddd1461015357806323b872dd14610171575b600080fd5b61010d610323565b60405161011a9190610ff9565b60405180910390f35b61013d600480360381019061013891906110b4565b6103b5565b60405161014a919061110f565b60405180910390f35b61015b6103d8565b6040516101689190611139565b60405180910390f35b61018b60048036038101906101869190611154565b6103e2565b604051610198919061110f565b60405180910390f35b6101a9610411565b6040516101b691906111c3565b60405180910390f35b6101c761041a565b6040516101d49190611139565b60405180910390f35b6101f760048036038101906101f291906110b4565b610442565b005b610213600480360381019061020e91906111de565b610458565b005b61022f600480360381019061022a919061120b565b61046c565b60405161023c9190611139565b60405180910390f35b61024d6104b4565b005b610269600480360381019061026491906110b4565b6104c8565b005b6102736104e8565b6040516102809190611247565b60405180910390f35b610291610512565b60405161029e9190610ff9565b60405180910390f35b6102c160048036038101906102bc91906110b4565b6105a4565b6040516102ce919061110f565b60405180910390f35b6102f160048036038101906102ec9190611262565b6105c7565b6040516102fe9190611139565b60405180910390f35b610321600480360381019061031c919061120b565b61064e565b005b606060038054610332906112d1565b80601f016020809104026020016040519081016040528092919081815260200182805461035e906112d1565b80156103ab5780601f10610380576101008083540402835291602001916103ab565b820191906000526020600020905b81548152906001019060200180831161038e57829003601f168201915b5050505050905090565b6000806103c06106d4565b90506103cd8185856106dc565b600191505092915050565b6000600254905090565b6000806103ed6106d4565b90506103fa8582856106ee565b610405858585610782565b60019150509392505050565b60006012905090565b60007f0000000000000000000000000000000000000000000000000000000000000000905090565b61044a610876565b61045482826108fd565b5050565b6104696104636106d4565b8261097f565b50565b60008060008373ffffffffffffffffffffffffffffffffffffffff1673ffffffffffffffffffffffffffffffffffffffff168152602001908152602001600020549050919050565b6104bc610876565b6104c66000610a01565b565b6104da826104d46106d4565b836106ee565b6104e4828261097f565b5050565b6000600560009054906101000a900473ffffffffffffffffffffffffffffffffffffffff16905090565b606060048054610521906112d1565b80601f016020809104026020016040519081016040528092919081815260200182805461054d906112d1565b801561059a5780601f1061056f5761010080835404028352916020019161059a565b820191906000526020600020905b81548152906001019060200180831161057d57829003601f168201915b5050505050905090565b6000806105af6106d4565b90506105bc818585610782565b600191505092915050565b6000600160008473ffffffffffffffffffffffffffffffffffffffff1673ffffffffffffffffffffffffffffffffffffffff16815260200190815260200160002060008373ffffffffffffffffffffffffffffffffffffffff1673ffffffffffffffffffffffffffffffffffffffff16815260200190815260200160002054905092915050565b610656610876565b600073ffffffffffffffffffffffffffffffffffffffff168173ffffffffffffffffffffffffffffffffffffffff16036106c85760006040517f1e4fbdf70000000000000000000000000000000000000000000000000000000081526004016106bf9190611247565b60405180910390fd5b6106d181610a01565b50565b600033905090565b6106e98383836001610ac7565b505050565b60006106fa84846105c7565b90507fffffffffffffffffffffffffffffffffffffffffffffffffffffffffffffffff811461077c578181101561076c578281836040517ffb8f41b200000000000000000000000000000000000000000000000000000000815260040161076393929190611302565b60405180910390fd5b61077b84848484036000610ac7565b5b50505050565b600073ffffffffffffffffffffffffffffffffffffffff168373ffffffffffffffffffffffffffffffffffffffff16036107f45760006040517f96c6fd1e0000000000000000000000000000000000000000000000000000000081526004016107eb9190611247565b60405180910390fd5b600073ffffffffffffffffffffffffffffffffffffffff168273ffffffffffffffffffffffffffffffffffffffff16036108665760006040517fec442f0500000000000000000000000000000000000000000000000000000000815260040161085d9190611247565b60405180910390fd5b610871838383610c9e565b505050565b61087e6106d4565b73ffffffffffffffffffffffffffffffffffffffff1661089c6104e8565b73ffffffffffffffffffffffffffffffffffffffff16146108fb576108bf6106d4565b6040517f118cdaa70000000000000000000000000000000000000000000000000000000081526004016108f29190611247565b60405180910390fd5b565b600073ffffffffffffffffffffffffffffffffffffffff168273ffffffffffffffffffffffffffffffffffffffff160361096f5760006040517fec442f050000000000000000000000000000000000000000000000000000000081526004016109669190611247565b60405180910390fd5b61097b60008383610c9e565b5050565b600073ffffffffffffffffffffffffffffffffffffffff168273ffffffffffffffffffffffffffffffffffffffff16036109f15760006040517f96c6fd1e0000000000000000000000000000000000000000000000000000000081526004016109e89190611247565b60405180910390fd5b6109fd82600083610c9e565b5050565b6000600560009054906101000a900473ffffffffffffffffffffffffffffffffffffffff16905081600560006101000a81548173ffffffffffffffffffffffffffffffffffffffff021916908373ffffffffffffffffffffffffffffffffffffffff1602179055508173ffffffffffffffffffffffffffffffffffffffff168173ffffffffffffffffffffffffffffffffffffffff167f8be0079c531659141344cd1fd0a4f28419497f9722a3daafe3b4186f6b6457e060405160405180910390a35050565b600073ffffffffffffffffffffffffffffffffffffffff168473ffffffffffffffffffffffffffffffffffffffff1603610b395760006040517fe602df05000000000000000000000000000000000000000000000000000000008152600401610b309190611247565b60405180910390fd5b600073ffffffffffffffffffffffffffffffffffffffff168373ffffffffffffffffffffffffffffffffffffffff1603610bab5760006040517f94280d62000000000000000000000000000000000000000000000000000000008152600401610ba29190611247565b60405180910390fd5b81600160008673ffffffffffffffffffffffffffffffffffffffff1673ffffffffffffffffffffffffffffffffffffffff16815260200190815260200160002060008573ffffffffffffffffffffffffffffffffffffffff1673ffffffffffffffffffffffffffffffffffffffff168152602001908152602001600020819055508015610c98578273ffffffffffffffffffffffffffffffffffffffff168473ffffffffffffffffffffffffffffffffffffffff167f8c5be1e5ebec7d5bd14f71427d1e84f3dd0314c0f7b2291e5b200ac8c7c3b92584604051610c8f9190611139565b60405180910390a35b50505050565b610ca9838383610d44565b600073ffffffffffffffffffffffffffffffffffffffff168373ffffffffffffffffffffffffffffffffffffffff1603610d3f576000610ce761041a565b90506000610cf36103d8565b905081811115610d3c5780826040517f9e79f854000000000000000000000000000000000000000000000000000000008152600401610d33929190611339565b60405180910390fd5b50505b505050565b600073ffffffffffffffffffffffffffffffffffffffff168373ffffffffffffffffffffffffffffffffffffffff1603610d96578060026000828254610d8a9190611391565b92505081905550610e69565b60008060008573ffffffffffffffffffffffffffffffffffffffff1673ffffffffffffffffffffffffffffffffffffffff16815260200190815260200160002054905081811015610e22578381836040517fe450d38c000000000000000000000000000000000000000000000000000000008152600401610e1993929190611302565b60405180910390fd5b8181036000808673ffffffffffffffffffffffffffffffffffffffff1673ffffffffffffffffffffffffffffffffffffffff16815260200190815260200160002081905550505b600073ffffffffffffffffffffffffffffffffffffffff168273ffffffffffffffffffffffffffffffffffffffff1603610eb25780600260008282540392505081905550610eff565b806000808473ffffffffffffffffffffffffffffffffffffffff1673ffffffffffffffffffffffffffffffffffffffff168152602001908152602001600020600082825401925050819055505b8173ffffffffffffffffffffffffffffffffffffffff168373ffffffffffffffffffffffffffffffffffffffff167fddf252ad1be2c89b69c2b068fc378daa952ba7f163c4a11628f55a4df523b3ef83604051610f5c9190611139565b60405180910390a3505050565b600081519050919050565b600082825260208201905092915050565b60005b83811015610fa3578082015181840152602081019050610f88565b60008484015250505050565b6000601f19601f8301169050919050565b6000610fcb82610f69565b610fd58185610f74565b9350610fe5818560208601610f85565b610fee81610faf565b840191505092915050565b600060208201905081810360008301526110138184610fc0565b905092915050565b600080fd5b600073ffffffffffffffffffffffffffffffffffffffff82169050919050565b600061104b82611020565b9050919050565b61105b81611040565b811461106657600080fd5b50565b60008135905061107881611052565b92915050565b6000819050919050565b6110918161107e565b811461109c57600080fd5b50565b6000813590506110ae81611088565b92915050565b600080604083850312156110cb576110ca61101b565b5b60006110d985828601611069565b92505060206110ea8582860161109f565b9150509250929050565b60008115159050919050565b611109816110f4565b82525050565b60006020820190506111246000830184611100565b92915050565b6111338161107e565b82525050565b600060208201905061114e600083018461112a565b92915050565b60008060006060848603121561116d5761116c61101b565b5b600061117b86828701611069565b935050602061118c86828701611069565b925050604061119d8682870161109f565b9150509250925092565b600060ff82169050919050565b6111bd816111a7565b82525050565b60006020820190506111d860008301846111b4565b92915050565b6000602082840312156111f4576111f361101b565b5b60006112028482850161109f565b91505092915050565b6000602082840312156112215761122061101b565b5b600061122f84828501611069565b91505092915050565b61124181611040565b82525050565b600060208201905061125c6000830184611238565b92915050565b600080604083850312156112795761127861101b565b5b600061128785828601611069565b925050602061129885828601611069565b9150509250929050565b7f4e487b7100000000000000000000000000000000000000000000000000000000600052602260045260246000fd5b600060028204905060018216806112e957607f821691505b6020821081036112fc576112fb6112a2565b5b50919050565b60006060820190506113176000830186611238565b611324602083018561112a565b611331604083018461112a565b949350505050565b600060408201905061134e600083018561112a565b61135b602083018461112a565b9392505050565b7f4e487b7100000000000000000000000000000000000000000000000000000000600052601160045260246000fd5b600061139c8261107e565b91506113a78361107e565b92508282019050808211156113bf576113be611362565b5b9291505056fea26469706673582212206f3b896329cd744a7c3c3b268264360b333fca77dd3fe03877e1ff54476c6ec764736f6c63430008180033",
  "linkReferences": {},
  "deployedLinkReferences": {}
}